:100000000C94E0070C9427080C9427080C942708FC
:100010000C9427080C9427080C9427080C942708A4
:100020000C9427080C9427080C94B7170C94891883
:100030000C949B270C9427080C9427080C942708F1
:100040000C9427080C9427080C9427080C94270874
:100050000C9427080C943B280C9427080C94270830
:100060000C9427080C940C0B0C9427080C9427086C
:100070000C9427080C9427080C9427080C94270844
:100080000C9427080C9427080C9427080C94270834
:100090000C9427080C9427080C9427080C94270824
:1000A0000C9427080C9427080C9427084A104E102B
:1000B000521056105A105E10621066106A106E10C0
:1000C000721076107A107E10821086108A108E10B0
:1000D000921096109A109E10A210A610AA10AE10A0
:1000E000B210B610BA10BE10C210C610CA10CE1090
:1000F000D210D61016114810DA10DC10DE10E01005
:10010000E410E810EC10F010F510FA10FE100211D7
:1001100006110A110E1114111411141114111411D5
:1001200014111411141114111411141114111411A7
:100130001411141114111411141114111211F618B0
:100140001819061A1819061A5D198019061AD519F0
:10015000E819231D231D521D521DB01DEE1D082040
:100160000820071E0820081F081FDC1F0820082081
:10017000F31F0A00690025640052005000022B00A2
:1001800001E2012B0001A902A9007500010B020B7D
:1001900001080208010F020F010F020F74FF011284
:1001A00002120001E1011E021E02E1010F020F0115
:1001B00004020401110211010702070128022800AC
:1001C000F1A803C0048A088A218A228A248A288AFC
:1001D00003C050044F0400C001C01F141A16041DB0
:1001E0001B06202115080709190522231C170A0BD5
:1001F00011001E292BE0E1E3E22C2425180C0E0D42
:10020000100031352A28C0E5E7E626271213330F00
:1002100036002D2E302F343837003B0000A9AA00BD
:1002200000003C3D0000A80000003E3F00000055DB
:1002300057003A3539E0E1C2C3C4404100464A5450
:100240005600494C2A2801C7C6C542434748504B6F
:100250004D00444500524F514E00014A4E5000009F
:10026000000001014B52514F000001014A4D005066
:100270004A0001012BE0E1E3E22C01014E4B525117
:100280004E0001012A28C0E5E7E601014D00004FBC
:100290004B000101000000004D00010000000000C3
:1002A000000001010000000000FA0101F400F9F271
:1002B00000000101C8E0E1E3E2000101F0F5F3F123
:1002C00000000101C828C0E5E7E6010100000000C8
:1002D00000000101CAC90000000001000000000088
:1002E00000270101240000211E1F010126252223D1
:1002F00020000101C8E0E1E3E2280101575554560E
:10030000000001012A28C0E5E7E601010052515032
:100310000000010100004F000000013436120433D8
:10032000140D0101133708180E1B0101091C0C07DD
:10033000050001012BE0E1E3E22C01010A06170BA5
:10034000100001012A28C0E5E7E60101150F16118A
:100350001A0001012E382D1D190001343612043304
:10036000140D0101133708180E1B0101091C0C079D
:10037000050001012BE0E1E3E22C01010A06170B65
:10038000100001012A28C0E5E7E60101150F16114A
:100390001A0001012E382D1D190001CC361204332C
:1003A000140D0101133708180E1B0101091C0C075D
:1003B000050001012BE0E1E3E2CB01010A06170B86
:1003C000100001012A28C0E5E7E60101150F16110A
:1003D0001A0001012E382D1D19003B0000A9AA00AA
:1003E00000003C3D0000A80000003E3F000000551A
:1003F00057003A3539E0E1C2C3C4404100464A548F
:100400005600494C2A2801C7C6C542434748504BAD
:100410004D00444500524F514E0025630025730D99
:100420000A00522C310D0A0053592C464646340D11
:100430000A0053482C303033430D0A00537E2C36CB
:100440000D0A0053572C383030300D0A00534D2C14
:10045000340D0A0053532C4B6579626F6172642F1F
:100460004D6F7573650D0A00532D2C546D6B4254FE
:100470000D0A0053462C310D0A002D2D2D0D0A00BA
:1004800045786974696E6720636F6E666967206D71
:100490006F6465202E2E2E0A002B0D0A00760D0AA1
:1004A0000024242400456E746572696E6720636FB2
:1004B0006E666967206D6F6465202E2E2E0A0052CD
:1004C0002C310D0A0053522C5A0D0A00555342206C
:1004D0006D6F64650A004175746F206D6F64650A05
:1004E00000253032750A00253032753A0025303249
:1004F000753A004241543A2025756D5609007570D1
:1005000074696D653A202530327520253032753A90
:10051000253032753A253032750A00564255533A25
:100520002025580A0052656D6F746557616B6575BB
:1005300070456E61626C65643A2025580A000A00B5
:100540003F004C4F570044495343484700434841FC
:1005500052470046554C4C00626174746572793A9A
:1005600020005553422053746174653A2025730A64
:1005700000636F6E6669675F6D6F64653A2025582A
:100580000A00726E34325F6175746F636F6E6E65F0
:100590006374696E6728293A2025580A00726E3400
:1005A000323A2025730A00666F7263655F75736265
:1005B0003A2025580A0070726F746F636F6C3A208E
:1005C00025730A000A2D2D2D2D2D20524E2D34324B
:1005D00020696E666F202D2D2D2D2D0A00753A2075
:1005E000202020202020746F67676C6520466F7282
:1005F000636520555342206D6F64650A00703A2090
:1006000020202020202070616972696E670A0053E3
:100610006C636B3A20202020524E2D343220696EBC
:10062000697469616C697A650A0044656C3A2020D6
:10063000202020656E7465722F6578697420524E93
:100640002D343220636F6E666967206D6F64650AB2
:1006500000623A202020202020206261747465729C
:100660007920766F6C746167650A00693A202020F2
:1006700020202020524E2D343220696E666F0A00F1
:100680000A0A2D2D2D2D2D20426C7565746F6F7407
:100690006820524E2D34322048656C70202D2D2D4F
:1006A0002D2D0A00253032753A253032753A253025
:1006B00032750925756D560A004C454420737461E6
:1006C0007475733A20253032580A0020253032588C
:1006D000002563005B735D004B6579626F61726436
:1006E0002073746172740A00524E2D343220696E88
:1006F00069740A000A55534220696E69740A005BE6
:10070000445D005B435D001203480048004B00421B
:100710000020006D006F00640000000E0374002EC6
:10072000006D002E006B002E000000040309040978
:10073000028D00050100A03209040000010301013F
:100740000009211101000122400007058103080072
:100750000A0904010001030102000921110100013D
:10076000224D000705820308000A09040200010364
:100770000000000921110100012236000705830352
:1007800008000A0904030002030000000921110106
:10079000000122220007058403200001070504034D
:1007A00020000109040400010300000009211101D7
:1007B0000001223900070585032000011201100104
:1007C00000000008EDFE42420401010200010501A3
:1007D0000906A101050719E029E71500250195087B
:1007E0007501810205081901290595057501910218
:1007F0009501750391010507190029F715002501D9
:1008000095F875018102C00631FF0974A1010975CF
:10081000150026FF0095207508810209761500262F
:10082000FF00952075089102C005010980A101858E
:100830000216810026B7001A81002AB700751095AC
:10084000018100C0050C0901A101850316010026E4
:100850009C021A01002A9C02751095018100C005B6
:10086000010902A1010901A10005091901290515C4
:10087000002501950575018102950175038101052A
:1008800001093009311581257F9502750881060916
:10089000381581257F950175088106050C0A3802F7
:1008A0001581257F950175088106C0C005010906DF
:1008B000A101050719E029E7150025019508750133
:1008C0008102950175088101050819012905950521
:1008D000750191029501750391010507190029FF22
:1008E000150026FF00950675088100C0636F6E73C2
:1008F000756D65723A20253034580A007379737427
:10090000656D3A20253034580A000A0025303258E7
:1009100020006B6579626F6172643A20004C454437
:100920003A20253032580A00253032583A202530F6
:10093000386225730A00722F632030313233343528
:1009400036370A0064656C5F6B65795F6269743A7B
:100950002063616E27742064656C3A20253032581C
:100960000A006164645F6B65795F6269743A206351
:10097000616E2774206164643A20253032580A0081
:100980004F6E6573686F743A2074696D656F757426
:100990000A00290A002575002F002575005D280032
:1009A0002564002000256400200025640020002527
:1009B00064007C0025303258006D6F7573656B657F
:1009C00079205B62746E7C782079207620685D28BF
:1009D0007265702F61636C293A205B006D6B5F77E5
:1009E0006865656C5F74696D655F746F5F6D617874
:1009F000203D2025640A006D6B5F776865656C5F3C
:100A00006D61785F7370656564203D2025640A0020
:100A10006D6B5F74696D655F746F5F6D6178203DAC
:100A20002025640A006D6B5F6D61785F737065658A
:100A300064203D2025640A006D6B5F696E746572E9
:100A400076616C203D2025640A006D6B5F64656CE7
:100A50006179203D2025640A006D6B5F77686565CC
:100A60006C5F74696D655F746F5F6D6178203D20A8
:100A700025640A006D6B5F776865656C5F6D6178F2
:100A80005F7370656564203D2025640A006D6B5FAF
:100A900074696D655F746F5F6D6178203D202564BA
:100AA0000A006D6B5F6D61785F7370656564203DF2
:100AB0002025640A006D6B5F696E74657276616CE7
:100AC000203D2025640A006D6B5F64656C617920B0
:100AD0003D2025640A000A00257500363A20776813
:100AE00065656C5F74696D655F746F5F6D61783AA1
:100AF00020000A00257500353A20776865656C5F2F
:100B00006D61785F73706565643A20000A00257531
:100B100000343A2074696D655F746F5F6D61783A77
:100B200020000A00257500333A206D61785F7370EC
:100B30006565643A20000A00257500323A20696E26
:100B400074657276616C286D73293A20000A00255D
:100B50007500313A2064656C6179282A31306D73F3
:100B6000293A20000A092D2056616C756573202DE5
:100B70000A004D3E004D25643E20003F0073657421
:100B80002064656661756C740A00433E20007768D6
:100B90006572652064656C74613A20637572736F69
:100BA000723D25642C20776865656C3D25640A5389
:100BB000656520687474703A2F2F656E2E77696BA7
:100BC0006970656469612E6F72672F77696B692F31
:100BD0004D6F7573655F6B6579730A000A092D2087
:100BE0004D6F7573656B6579202D0A4553432F71E1
:100BF0003A09717569740A313A0964656C6179283A
:100C00002A31306D73290A323A09696E7465727639
:100C1000616C286D73290A333A096D61785F7370CE
:100C20006565640A343A0974696D655F746F5F6D58
:100C300061780A353A09776865656C5F6D61785F40
:100C400073706565640A363A09776865656C5F7428
:100C5000696D655F746F5F6D61780A0A703A09703B
:100C600072696E742076616C7565730A643A0973F3
:100C700065742064656661756C74730A75703A09F1
:100C80002B310A646F776E3A092D310A70677570DF
:100C90003A092B31300A7067646F776E3A092D314B
:100CA000300A0A7370656564203D2064656C746168
:100CB000202A206D61785F7370656564202A202882
:100CC000726570656174202F2074696D655F746F43
:100CD0005F6D6178290A003F004D3E2000433E20B1
:100CE000004C25640A000A092D20436F6E736F6C57
:100CF00065202D0A4553432F713A09717569740AAD
:100D00006D3A096D6F7573656B65790A000A092D77
:100D1000204D61676963202D0A643A096465627534
:100D2000670A783A096465627567206D6174726953
:100D3000780A6B3A096465627567206B6579626F42
:100D40006172640A6D3A096465627567206D6F753A
:100D500073650A763A0976657273696F6E0A733A3B
:100D6000097374617475730A633A09636F6E736F04
:100D70006C65206D6F64650A302D343A096C6179B9
:100D80006572302D34284631302D4634290A5061A1
:100D900075733A09626F6F746C6F616465720A6E85
:100DA0003A094E4B524F0A003F004E4B524F3A20E9
:100DB0006F66660A004E4B524F3A206F6E0A0074FF
:100DC000696D65725F72656164333228293A202546
:100DD00030346C580A006B6579626F6172645F6EC3
:100DE0006B726F3A2025580A006B6579626F6172E9
:100DF000645F69646C653A2025580A006B65796206
:100E00006F6172645F70726F746F636F6C3A2025EC
:100E1000580A00686F73745F6B6579626F61726402
:100E20005F6C65647328293A2025580A000A092D49
:100E300020537461747573202D0A004743433A2090
:100E4000342E392E32204156522D4C4942433A20FD
:100E5000312E382E3073766E204156525F41524308
:100E6000483A20617672350A004F5054494F4E532C
:100E70003A204C554641204D4F5553454B4559203E
:100E800045585452414B455920434F4E534F4C45C2
:100E900020434F4D4D414E44204E4B524F20343055
:100EA00039360A004255494C443A2064306239319F
:100EB0006361202831353A31353A3335204A616E45
:100EC0002032342032303139290A005649443A2040
:100ED00030784645454428742E6D2E6B2E292050BF
:100EE00049443A203078343234322848484B422042
:100EF0006D6F6429205645523A20307830313034B5
:100F00000A00444553433A20742E6D2E6B2E206BFD
:100F10006579626F617264206669726D776172656E
:100F200020666F722048484B42206D6F640A000AA9
:100F3000092D2056657273696F6E202D0A000A6DA7
:100F40006F7573653A206F66660A000A6D6F757378
:100F5000653A206F6E0A000A6B6579626F61726490
:100F60003A206F66660A000A6B6579626F61726487
:100F70003A206F6E0A000A6D61747269783A206FC8
:100F800066660A000A6D61747269783A206F6E0AAB
:100F9000000A64656275673A206F6E0A000A64652C
:100FA0006275673A206F66660A000A0A626F6F749C
:100FB0006C6F616465722E2E2E2000433E2000006F
:100FC00011241FBECFEFDAE0DEBFCDBF04B603FEB3
:100FD00027C08091DA049091DB04A091DC04B091E9
:100FE000DD048730904BA740B04BD1F41092DA0467
:100FF0001092DB041092DC041092DD0414BE84B75E
:10100000877F84BF0FB6F894A895809160008861AF
:1010100080936000109260000FBEE0E0F8E3099555
:1010200011E0A0E0B1E0E8EDF2E602C005900D921B
:10103000A63AB107D9F724E0A6EAB1E001C01D92B3
:10104000AA3DB207E1F70E9451120C946A310C9448
:1010500000000FB680959AE0F8947BE27A95F1F75C
:1010600008F0589A08F4589886959A95B1F70FBEEB
:1010700008950FB680E8F894499BFECF4999FECFBA
:1010800096E19A95F1F79CE29A95F1F78695499940
:101090008068C8F70FBE08950FB680E8F89496E10F
:1010A0009A95F1F79CE29A95F1F7869549998068AF
:1010B000C8F796E19A95F1F7499BFECF0FBE0895C8
:1010C000FF93EF93E091A601F091A701309709F00B
:1010D0000995EF91FF910895FC018591803011F001
:1010E000EFDFFBCF0895FF27E0E230E247FF0CC0BF
:1010F000419597FF09C0EDE26095709580959095B8
:10110000611D711D811D911D27FF02C0219530E3D6
:1011100050E2AA27660F771F881F991FAA1FA417DE
:1011200010F0A41B63955A95A9F7AA3008F0A95F9F
:10113000A05DAF93F395611571058105910541F7A8
:10114000ED3211F4EF93F395F21718F43F93F39502
:10115000FBCF8F91B5DFFA95E1F70895E991F99109
:101160008591803021F0853219F0AADFF9CF0895FA
:1011700020E0E89455915532C1F3503311F468944E
:1011800055915A3348F4505390F3220F022E220FF8
:10119000220F200D250FF4CF0EF4219589919991FE
:1011A000533619F3533729F1533559F1BC018827C8
:1011B0009927E8945C3621F4899199916894559126
:1011C000543639F446EF7EF077FF0DC08FEF9FEF76
:1011D0000AC055374AE039F0583540E121F052361F
:1011E00042E009F00895FF93EF937DDFEF91FF91C7
:1011F000B7CFFF93EF93FC0181918030B9F360DFAB
:10120000FBCFFF93EF9368DFF1CFDF93CF93CDB7A1
:10121000DEB72596A3DFCF91DF910895FC01613001
:1012200061F028F0623079F0633099F018C0828163
:101230008823A9F083EA91E008958281882379F0D8
:101240008AE891E008958281882349F085E891E059
:1012500008958281811106C08DE791E0089580E0B4
:1012600090E0089580E891E008951F93CF93DF9375
:10127000EC01162F9A818091BB04992329F080FFFD
:1012800009C08BE791E004C080FF04C089E791E0CA
:101290000E946C088091BB0480FF0FC08D818295F5
:1012A0008F701F928F9386E791E09F938F930E9498
:1012B00005090F900F900F900F908D8180FF08C04F
:1012C0008091BB0480FF04C084E791E00E946C0819
:1012D0008091BB0480FF04C082E791E00E946C080B
:1012E000111130C09A818D81992361F0982F9295C8
:1012F0009F7011F080FF26C082E0DF91CF911F9197
:101300000C94D41C982F92959F70B1F080FD14C05E
:1013100082E00E94A5260E94D62686E20E94021C38
:1013200086E20E94AC1C82E00E94AB260E94D62678
:101330008D818F708D8306C082E0DF91CF911F91E8
:101340000C94DB1CDF91CF911F91089514B88FEF9F
:1013500085B9549A5C9808958FEF84B980E485B973
:10136000549A5C9A8FE19EE40197F1F700C0000067
:1013700008958FEF84B980E485B957985F9A87B153
:101380008F7387B988B1806C88B92E9A2F980E9484
:10139000A609E0EBF1E088E08E0F11928E13FDCFED
:1013A000E8EAF1E088E08E0F11928E13FDCF80EB1A
:1013B00091E09093BB018093BA0188EA91E0909309
:1013C000B9018093B80108950F931F93CF93DF93D2
:1013D0008091B8019091B9012091BA013091BB017F
:1013E0003093B9012093B8019093BB018093BA0167
:1013F0005C9B0E94AC09C0E0D0E001E010E080E01E
:1014000090E025B1207C2C2BAC0133E0440F551F1C
:101410003A95E1F7242B25B9EAE1EA95F1F700C006
:10142000E091B801F091B901EC0FFD1F208130E08F
:10143000082E02C0359527950A94E2F720FD2F9AD1
:10144000F5E3FA95F1F70000E6B52E982AE12A9522
:10145000F1F700C04091BA015091BB01DA01AC0F25
:10146000BD1F4F9B0AC09801082E01C0220F0A948D
:10147000EAF720953C91232308C06C919801082E2F
:1014800001C0220F0A94EAF7262B2C9326B56E2F63
:1014900070E02E1718F026B530E004C026B530E015
:1014A00021503F4F261B370B2630310558F0E09175
:1014B000B801F091B901EC0FFD1F2081FA01EC0F8A
:1014C000FD1F20833AE13A95F1F700C02F982E9A3C
:1014D000EBE2F1E03197F1F700C0000001968830AF
:1014E000910509F08ECFA091BA01B091BB01AC0F6C
:1014F000BD1FE091B801F091B901EC0FFD1F9C9167
:101500008081981751F00E94D9276093BC01709395
:10151000BD018093BE019093BF012196C830D105D3
:1015200009F06DCF5C9B1BC08091D104853021F008
:101530008091D104811113C06091BC017091BD01F3
:101540008091BE019091BF010E940F2861317742C6
:101550008105910520F00E94A6090E945A2781E08A
:10156000DF91CF911F910F9108952091BA01309191
:10157000BB01F901E80FF11D808108950C94AC09BD
:101580000C94A609569A81FF02C05E9A08955E984F
:10159000089588E08093CC001092CD00E9ECF0E053
:1015A000808180698083808188608083EAECF0E0BC
:1015B00080818083EBECF0E080818083559A5D9898
:1015C000789408959091C1012091C0019217D1F0B3
:1015D00030E0F901EE53FE4F80812F5F3F4F3327FC
:1015E0002093C001492F50E0921718F4241B350BAB
:1015F00003C0241B350B3395233031050CF05D9867
:1016000090E008958FEF9FEF08959091C80095FFA7
:10161000FCCF8093CE0008951F920F920FB60F92C9
:1016200011242F933F934F935F938F939F93EF9347
:10163000FF938091C10190E0AC014F5F5F4F20911B
:10164000C001241741F03091CE00FC01EE53FE4F53
:1016500030834093C1013091C101822F90E0432F2C
:1016600050E0841B950B321708F0939503970CF408
:101670005D9AFF91EF919F918F915F914F913F9173
:101680002F910F900FBE0F901F9018958091DC0244
:10169000089508958091DC020895089508950895AD
:1016A0000895CF93DF938D3C9105B9F1B8F4853B54
:1016B0009105A9F148F4833B9105D1F1843B910553
:1016C000D1F5D0E0C0E23BC0873B910571F150F10C
:1016D0008C3C910581F5D0E0C8E031C08A3E91058F
:1016E000C1F040F4823E9105B1F0893E910519F5B3
:1016F000D0E124C0813222E0920749F0833222E017
:101700009207D9F08A389140B1F4D2E017C0D4E002
:1017100015C0D0E213C0D0E411C0D0E80FC0D0E0B3
:10172000C1E00DC0D0E0C2E00AC0D0E0C4E007C014
:10173000D0E0C0E104C0D0E001C0D1E0C0E08DEF56
:101740000E94050B83E00E94050B83E00E94050BBD
:101750008D2F0E94050B8C2FDF91CF910C94050BE0
:10176000CF93DF93EC018DEF0E94050B85E00E9483
:10177000050B82E00E94050B88810E94050B898180
:101780000E94050B8A810E94050B8B81DF91CF910E
:101790000C94050BCF93DF93EC018DEF0E94050BAA
:1017A00089E00E94050B81E00E94050B88810E9460
:1017B000050B80E00E94050B8A810E94050B8B813E
:1017C0000E94050B8C810E94050B8D810E94050BE8
:1017D0008E810E94050B8F81DF91CF910C94050BB8
:1017E0000C94E20AEF92FF920F931F93CF938C0118
:1017F0000E94CD277C01C0E0C7010E94E527801729
:10180000910798F40E94E20A9C012F3F8FEF38075E
:1018100051F02D3041F02A3041F0EC2FF0E0EC5344
:10182000FD4F2083CF5FC73138F3EC2FF0E0EC534E
:10183000FD4F108284EC92E0CF911F910F91FF90A9
:10184000EF9008950C94050B81B3881F8827881F9B
:101850000895879A8F9A089585B7806885BF85B760
:10186000806885BF0E94290C86988E9A81988998F5
:10187000559A5D980C94C90A879A8F9808958FB1EC
:101880008695817008958FB186FB882780F9089529
:101890008093DC020895CF93DF93FC018491EF01E4
:1018A0002196882321F00E94050BFE01F7CFDF91DE
:1018B000CF910895CF93DF93CAE1D4E00E94E20A6A
:1018C0008F3F2FEF920759F09F938F93DF93CF9322
:1018D0000E9405090F900F900F900F90EFCFDF91AE
:1018E000CF9108950E944B0C2FEF89E698E121508B
:1018F00080409040E1F700C0000084E690E00E9444
:10190000F20B8093C2029093C3029F938F938DE159
:1019100094E09F938F930E9405090E945A0C0F90A8
:101920000F900F900F908091C2029091C302089582
:101930000E94231A90931501809314010E942A207B
:1019400080E091E00E941E1A0E943C0C0E94430C11
:101950008111FCCF85EA94E00E946C082FEF85EBA3
:1019600095E3215080409040E1F700C0000081EAFB
:1019700094E00E94720CEFEFFBE42DE1E150F040A7
:101980002040E1F700C000000E945A0C8DE994E06D
:101990000E94720CFC018081863721F089E994E075
:1019A0000C94720C089580E894E00E946C088AE719
:1019B00094E00E94720C0E94290C0E942A208091BF
:1019C0001401909115010C941E1A0E948D118091A2
:1019D00026018093CC0408958F929F92AF92BF927C
:1019E000CF92DF92EF92FF920F931F93CF93DF93EB
:1019F00092E0B92E0BEC16E021EDE22E26E0F22E5D
:101A0000AA24A39433E0932E49EBC42E46E0D42EAF
:101A10000E94F00BEC01019609F441C08091DF02B5
:101A20008130F9F028F0823009F1833021F134C09F
:101A3000CE3FD10519F4A092DF02EACFC038D1051C
:101A400028F4DF93CF93FF92EF9204C0DF93CF93FC
:101A50001F930F930E9405090F900F900F900F9006
:101A6000D7CF2297C9F4B092DF02D2CF2197A1F449
:101A70009092DF02CDCF8091BB0480FF0AC0DF933C
:101A8000CF93DF92CF920E9405090F900F900F9095
:101A90000F908C2F0E94480C1092DF02B9CF8091DA
:101AA000E102811127C08091E002811114C00E94DF
:101AB0003F0C811110C00E94231A8A509140D1F02E
:101AC0000E942A20809126018093CC041092260146
:101AD0008AE091E00DC00E94231A8B51914051F091
:101AE0000E942A208091CC04809326018BE191E012
:101AF0000E941E1A8091DD029091DE020E94E5276D
:101B0000893E23E0920708F461C028EE33E0B90172
:101B10000E941A31629FC001639F900D729F900DC9
:101B200011242091DD023091DE02820F931F9093E9
:101B3000DE028093DD020E942B12833011F481E0DB
:101B400001C080E00E947C110E94D92728EE33E07A
:101B500040E050E00E94423149015A018CE3C82E16
:101B6000D12CE12CF12CCA01B901A70196010E94E8
:101B70004231672B682B692B49F50E94F4112091A3
:101B8000BB0420FF23C09F938F931F921F92C50118
:101B9000B40120E13EE040E050E00E944231C22F1B
:101BA000A70196010E9442313F932F931F92CF933A
:101BB00084EA96E09F938F930E9405098DB79EB7A4
:101BC0000A960FB6F8949EBF0FBE8DBF0E943F0CC1
:101BD000811107C00E94430C882319F06E9A7698F1
:101BE00002C06E9A769ADF91CF911F910F91FF906C
:101BF000EF90DF90CF90BF90AF909F908F9008951F
:101C00008F929F92AF92BF92CF92DF92EF92FF920C
:101C10001F93CF93DF9300D000D0CDB7DEB78331D1
:101C200009F492C008F061C08B3009F46CC008F070
:101C300055C0853009F003C20E94D92728EE33E051
:101C400040E050E00E94423149015A010E94F411E3
:101C50009F938F9383EF94E09F938F930E94050946
:101C6000C501B40120E13EE040E050E00E94423175
:101C70005F934F933F932F932DEE34E03F932F9339
:101C800069837A838B839C830E9405098CE3C82E29
:101C9000D12CE12CF12C69817A818B819C81A70167
:101CA00096010E9442315F934F933F932F9387EEAB
:101CB00094E09F938F930E940509C501B401A70189
:101CC00096010E9442319F938F937F936F9381EE91
:101CD00094E09F938F930E9405094AC18C3009F4C8
:101CE00041C0813109F4A4C1AAC1883361F020F454
:101CF000883109F443C1A3C1873409F46AC18C3423
:101D000009F453C19CC180E896E00E946C088BE600
:101D100096E00E946C0881E596E00E946C088AE2D9
:101D200096E00E946C088FE096E00E946C088DEFB0
:101D300095E00E946C081091E102111111C08DED27
:101D400095E00E946C087FC10E94980C85EC94E09D
:101D50000E94720C8FEB94E00E94720C0E94D30CD4
:101D600011E071C184EC95E00E946C080E94231A76
:101D70008A50914019F085E391E002C08FE291E032
:101D80009F938F9386EB95E09F938F930E94050915
:101D90008091E0021F928F9387EA95E09F938F9343
:101DA0000E9405090E943F0C0FB6F894DEBF0FBEDB
:101DB000CDBF811107C00E94430C811106C08EE384
:101DC00091E005C08AE391E002C081E491E09F9335
:101DD0008F938DE995E09F938F930E9405090E9450
:101DE000240C1F928F9382E895E09F938F930E941B
:101DF00005098091E1021F928F9381E795E09F93FF
:101E00008F930E9405098091D1040FB6F894DEBF2C
:101E10000FBECDBF8823B9F08091D1048130B1F0DD
:101E20008091D1048230A9F08091D1048330A1F057
:101E30008091D104843099F08091D104853091F063
:101E400086E791E011C08EE491E00EC086E491E057
:101E50000BC089E591E008C081E691E005C08BE602
:101E600091E002C088E791E09F938F9382E695E02E
:101E70009F938F930E94050988E595E09F938F9328
:101E80000E9405090E942B120F900F900F900F9047
:101E90000F900F90813059F038F0823059F0833034
:101EA00061F482E495E00BC083E595E008C08DE421
:101EB00095E005C086E495E002C080E495E09F933C
:101EC0008F930E9405090F900F908EE395E09F93EA
:101ED0008F930E9405098091CF041F928F9385E212
:101EE00095E09F938F930E9405098091D90081709E
:101EF0001F928F938BE195E09F938F930E9405092A
:101F00000E94D92728EE33E040E050E00E944231A1
:101F100069017A019CE3892E912CA12CB12CCA0174
:101F2000B901A50194010E9442317F936F93C701CB
:101F3000B60120E13EE040E050E00E944231122F25
:101F4000A50194010E9442313F932F931F921F934A
:101F5000C701B60120E831E541E050E00E9442317E
:101F60003F932F938EEF94E09F938F930E940509E8
:101F70000FB6F894DEBF0FBECDBFF2CE8091E10266
:101F8000811160C01091E002112339F086ED94E0D8
:101F90000E946C081092E00256C08CEC94E00E9403
:101FA0006C0881E08093E002DBCE0E94240C182FA5
:101FB000882341F00E94980C81E08093CB048093A9
:101FC000E10241C00E94D30C1092CB041092E102B6
:101FD000C7CE8091E102811102C00E94980C83E774
:101FE00094E00E94720C88E694E00E94720C84E5F2
:101FF00094E00E94720C8DE494E00E94720C83E4E1
:1020000094E00E94720C8CE394E00E94720C82E3D4
:1020100094E00E94720C88E294E00E94720C82E2CA
:1020200094E00E94720C8091E102811199CE96CECB
:102030000E94231A11E08B51914029F403C01091A2
:10204000E10201C010E0812F0F900F900F900F90D0
:10205000DF91CF911F91FF90EF90DF90CF90BF90D5
:10206000AF909F908F900895CF93C82F0E948F2696
:10207000827291E009F490E04C2F50E0FA0134971D
:10208000E934F10508F0D0C0EA5AFF4F0C946431EE
:102090008BE12DC19111CCC081E629C19111CAC03B
:1020A00082E625C19111C8C083E621C19111C6C045
:1020B00084E61DC19111C4C085E619C19111C2C049
:1020C00086E615C19111C0C087E611C19111BEC04D
:1020D00088E60DC19111BCC089E609C19111BAC051
:1020E0008AE605C19111B8C08BE601C19111B6C055
:1020F0008CE6FDC09111B4C08DE6F9C09111B2C05B
:102100008EE6F5C09111B0C08FE6F1C09111AEC05E
:1021100080E7EDC09111ACC081E7E9C09111AAC080
:1021200082E7E5C09111A8C083E7E1C09111A6C084
:1021300084E7DDC09111A4C085E7D9C09111A2C088
:1021400086E7D5C09111A0C087E7D1C091119EC08C
:1021500088E7CDC091119CC089E7C9C091119AC090
:102160008AE7C5C0911198C081E3C1C0911196C0A2
:1021700082E3BDC0911194C083E3B9C0911192C0B4
:1021800084E3B5C0911190C085E3B1C091118EC0B8
:1021900086E3ADC091118CC087E3A9C091118AC0BC
:1021A00088E3A5C0911188C089E3A1C0911186C0C0
:1021B00080E39DC088E09BC089E099C080E297C021
:1021C00091117EC08DE293C091117CC08DE38FC0D0
:1021D00091117AC08BE58BC0911178C08DE587C0D5
:1021E000992309F475C08CE782C0992309F472C061
:1021F0008CE77DC0911170C08BE379C091116EC0E6
:1022000087E275C091116CC080E671C091116AC0FF
:102210008CE26DC0911168C08EE269C0911166C0F8
:102220008FE265C080E063C080E261C08AE05FC089
:1022300081E45DC082E45BC083E459C084E457C09C
:1022400085E455C086E453C087E451C088E44FC09C
:1022500089E44DC08AE44BC08BE449C08CE447C09C
:102260008DE445C08EE443C08FE441C080E53FC0AB
:1022700081E53DC082E53BC083E539C084E537C0D8
:1022800085E535C086E533C087E531C088E52FC0D8
:1022900089E52DC08AE52BC081E229C080E427C0F2
:1022A00083E225C084E223C085E221C08EE51FC001
:1022B00086E21DC08AE21BC088E219C089E217C00D
:1022C0008FE515C08BE213C08BE711C08DE70FC0FF
:1022D0008CE50DC08CE50BC08AE309C082E207C023
:1022E0008EE705C08CE303C08EE301C08FE30E943C
:1022F000220C81E0CF910895833019F4859A7D9A5C
:102300000895813011F4859A06C0823019F4859AB7
:102310008D9A089585988D98089581E00E947C118A
:102320002FEF81EE94E0215080409040E1F700C013
:10233000000082E00E947C112FEF81EE94E021509A
:1023400080409040E1F700C0000081E00E947C11D5
:102350002FEF81EE94E0215080409040E1F700C0E3
:10236000000082E00E947C112FEF81EE94E021506A
:1023700080409040E1F700C0000080E00E947C11A6
:1023800080EC80937C0087E080937A0081E98093E1
:102390007E0081E080937F008BE380937D00849AB0
:1023A0008C9808958091D90080FF1CC090B331B300
:1023B00085988D9AEFE9FFE03197F1F700C00000B2
:1023C0008FB185FB882780F920B390722F7D292B50
:1023D00020BB91B3232F20729F7D922B91BB91E064
:1023E0008927089580E00895CF93DF9300D0CDB77B
:1023F000DEB7849A8C9A80917A00806880937A0004
:102400008FE99FE00197F1F700C0000080917A000A
:10241000806480937A0080917A0086FDFCCF809161
:102420007800909179009A83898380917A008F77E0
:1024300080937A00849A8C9829813A8145E0429F62
:10244000C001439F900D1124805591090F900F906A
:10245000DF91CF9108958091D90080FD0C94D21125
:102460000E94F4118C3A2DE0920720F481E08093D1
:10247000E20205C085379E4010F01092E202809182
:10248000E202811102C082E0089583E00895CF93B3
:10249000C82F0E9429088C2F0E94BB1380E0CF9187
:1024A000089584B7877F84BF0FB6F894A89580916C
:1024B0006000886180936000109260000FBE90E021
:1024C00080E80FB6F89480936100909361000FBE8E
:1024D0000E943C170E9499178091E20084608093CB
:1024E000E20087E492E10E942B27509A589A519873
:1024F000599A78948FEF9091D1048150943041F0A3
:10250000EFE7FEE33197F1F700C000008111F3CF50
:1025100084EF96E00E946C080E942C0C0E94E50C4F
:1025200088EE96E00E946C080E94E41A88ED96E01E
:102530000E946C080E943F0C882319F18091D104FD
:102540008530F9F484ED96E00E946C080E94C00A80
:102550000E945A270E945A270E945A270E945A27EF
:102560000E945A270E945A270E945A278091CF041E
:10257000882301F30E9483278823E1F20E949115AA
:10258000D9CF0E94E81A0E94EC0CD4CF80910504A8
:102590000895CF93DF9300D01F92CDB7DEB79C0193
:1025A0008091D104843019F593E099833B832A8389
:1025B0009093E9008FEF9091E800815095FD06C05F
:1025C00095ED9A95F1F700008111F5CF8091E80023
:1025D00085FF0DC040E050E063E070E0CE01019661
:1025E0000E94A7158091E8008E778093E8000F90F5
:1025F0000F900F90DF91CF910895CF93DF9300D08C
:102600001F92CDB7DEB72091D104243021F522E00E
:1026100029839B838A8383E08093E9008FEF9091E5
:10262000E800815095FD06C095ED9A95F1F7000000
:102630008111F5CF8091E80085FF0DC040E050E0AA
:1026400063E070E0CE0101960E94A7158091E8003A
:102650008E778093E8000F900F900F90DF91CF91CD
:1026600008952091D1042430F1F422E02093E90070
:102670002FEF3091E800215035FD06C035ED3A9539
:10268000F1F700002111F5CF2091E80025FF0BC0E4
:1026900040E050E065E070E00E94A7158091E800FE
:1026A0008E778093E8000895CF93DF932091D10433
:1026B000243009F04AC0EC01809125018823E1F023
:1026C000809126018823C1F085E08093E90081E8AC
:1026D000815049F09091E80095FD05C09AE29A95E5
:1026E000F1F700C0F5CF8091E80085FF2EC040E0F3
:1026F00050E060E270E019C081E08093E90081E879
:10270000815059F09091E80095FD07C0EFE3F1E0AA
:102710003197F1F700C00000F3CF8091E80085FF0A
:1027200014C040E050E068E070E0CE010E94A715C0
:102730008091E8008E778093E80080E2FE01A5EEAC
:10274000B3E001900D928A95E1F7DF91CF91089562
:10275000CF93C091E302C1110BC00E94D927643C02
:1027600079408105910520F081E08093E302C1E08A
:102770008C2FCF910895CF93C82F0E94A813882340
:1027800009F448C00FB607FE45C08091D1048430DB
:1027900009F040C09091E9009F702091EC00822FD9
:1027A000817020FD80E8982B84E08093E90080917F
:1027B000EB0080FF2CC08091EE0087FF28C02091A5
:1027C000190180911801821709F449C08091E8002D
:1027D00085FF1DC0E0911601F0911701E20FF11D78
:1027E00080812F5F30911A01232320931901809358
:1027F000F1008091E80085FDE2CF8091E80080FF44
:10280000DECF2091E8002E772093E800D8CF9F708C
:102810009093E9002091180130E0B9016F5F7F4F7C
:1028200090911A01492F50E04623572360911901D6
:1028300070E04617570789F08091160190911701B3
:10284000FC01E20FF31FC083809118018F5F90910C
:102850001A018923809318010BC08FEF0AC0809161
:10286000E80085FFD4CFC093F1009F709093E900FA
:1028700080E0CF91089583E097E00E946C088091FA
:10288000D004811109C00E943C170E9499178091C1
:10289000E20084608093E20008958FEF96E00E944A
:1028A0006C081092D00408950895089542E061ECF8
:1028B00081E00E94B61642E061EC82E00E94B6160A
:1028C00042E061EC83E00E94B61642E261EC84E0F3
:1028D0000E94B61642E261EC85E00C94B616809137
:1028E000D304833009F455C030F4813071F0823064
:1028F00009F48EC008958A3009F47AC08B3009F447
:1029000060C0893009F09CC020C08091D204813A17
:1029100009F096C08091E800877F8093E80080915D
:10292000D6049091D704892B21F460E285EE93E0E0
:1029300003C060E080E090E070E00E94F2158091BA
:10294000E8008B778093E80008958091D20481326B
:1029500009F076C08091D6049091D704009719F0C1
:10296000049709F06DC08091E800877F8093E800AC
:102970008091E80082FD05C08091D1048111F8CFDB
:102980005FC08091F100809305048091E8008B770F
:1029900053C08091D204813A09F052C08091D6048C
:1029A0009091D704892B09F04BC08091E800877F74
:1029B0008093E8008091E80080FFFCCF80912501A2
:1029C00036C08091D2048132D9F58091D60490919D
:1029D000D704892BA9F58091E800877F8093E800D0
:1029E0000E94EB168091D404809325010C942A2038
:1029F0008091D204813221F58091E800877F809315
:102A0000E8000E94EB168091D50480930604089597
:102A10008091D204813AA1F48091E800877F80936D
:102A2000E8008091E80080FFFCCF8091060480934D
:102A3000F1008091E8008E778093E8000C94EB160B
:102A40000895809105048093E4021092050480E0CB
:102A50000E94C20A0E948D1B0C942A200C942115FE
:102A60000E9497278091E4028093050408950C94B6
:102A70003015292F332723303105C9F064F4213074
:102A8000310581F02230310509F043C08DE890E036
:102A90002FE237E042C021323105F1F02232310518
:102AA00041F137C082E190E02CEB37E036C0992746
:102AB0008130910541F08230910541F0892B49F533
:102AC000EBE2F7E005C0EBE1F7E002C0E7E0F7E09A
:102AD000849190E09F0121C06530D8F4E62FF0E0AA
:102AE000EE0FFF1FEF56FE4F2081318189E090E00D
:102AF00014C0653070F470E0FB01EE0FFF1FE95762
:102B0000FE4F20813181FB01EE57FE4F808190E026
:102B100004C080E090E020E030E0FA0131832083BF
:102B2000089580E189BD82E189BD09B400FEFDCF31
:102B30008091D8008F7D8093D8008091E0008260E2
:102B40008093E0008091E00081FDFCCF0895CF925A
:102B5000DF92EF92FF920F931F93CF93DF93EC01DD
:102B60008B016A010E940A17811133C0C114D1047C
:102B700039F0F60180819181081B190BC80FD91F0C
:102B8000E12CF12C0115110519F18091E80085FD6A
:102B900016C08091E8008E778093E800C114D104BC
:102BA00049F0F60180819181E80EF91EF182E08200
:102BB00085E00FC00E940A17882321F30AC089917B
:102BC0008093F10001501109FFEFEF1AFF0ADACFED
:102BD00080E0DF91CF911F910F91FF90EF90DF90F8
:102BE000CF9008952091D8043091D9042617370743
:102BF00048F06115710539F42091E8002E77209393
:102C0000E80001C0B90140E061157105A9F120910A
:102C1000D104222309F443C0253009F442C0209195
:102C2000E80023FD40C02091E80022FD32C0209141
:102C3000E80020FFE9CF4091F3002091F20030E05E
:102C4000342BFC01CF016115710559F02830310595
:102C500040F481918093F100615071092F5F3F4FE3
:102C6000F1CF41E02830310509F040E02091E80043
:102C70002E772093E800C8CF4111C9CF0AC08091B8
:102C8000D104882361F0853061F08091E80083FDF4
:102C90000AC08091E80082FFF2CF80E0089582E0D0
:102CA000089583E0089581E008952091D80430913B
:102CB000D9042617370748F06115710539F42091BA
:102CC000E8002E772093E80001C0B901FC0120E064
:102CD0006115710591F18091D104882309F440C0F8
:102CE000853009F43FC08091E80083FD3DC08091AC
:102CF000E80082FD2FC08091E80080FFE9CF20919D
:102D0000F3008091F20090E0922B6115710559F06B
:102D10008830910540F424912093F1003196615060
:102D200071090196F2CF21E0089709F020E0809127
:102D3000E8008E778093E800CBCF2111CCCF0AC07A
:102D40008091D104882361F0853061F08091E800A2
:102D500083FD0AC08091E80082FFF2CF80E00895F1
:102D600082E0089583E0089581E00895982F9730D8
:102D700058F59093E900981739F07091EC00209184
:102D8000ED005091F00003C0242F762F50E021FF7A
:102D900019C03091EB003E7F3093EB003091ED0095
:102DA0003D7F3093ED003091EB0031603093EB00CC
:102DB0007093EC002093ED005093F0002091EE0012
:102DC00027FF07C09F5FD3CF8F708093E90081E01A
:102DD000089580E008958091D20487FF11C080910A
:102DE000E80082FD05C08091D1048111F8CF11C0A7
:102DF0008091E8008B770BC08091D104882349F043
:102E00008091E80080FFF8CF8091E8008E77809372
:102E1000E80008952091E4003091E50095E64091A6
:102E2000EC00842F817040FF22C08091E80080FD7B
:102E30001CC08091D104882391F0853091F080915D
:102E4000EB0085FD10C04091E4005091E500421771
:102E5000530729F39A01915011F784E0089582E015
:102E6000089583E0089581E0089580E008954091F9
:102E7000E80042FFDECF08950E94AA170E94B21711
:102E8000E0EEF0E0808181608083E8EDF0E0808119
:102E90008F77808319BCA7EDB0E08C918E7F8C93E7
:102EA00080818F7E80831092D00408950F931F93AA
:102EB000CF93DF930E94AA170E94B217C8EDD0E00B
:102EC00088818F77888388818068888388818F7DD7
:102ED000888319BC1092D1041092CD041092CF04B3
:102EE0001092CE0400EE10E0F80180818B7F808389
:102EF00088818160888342E060E080E00E94B616AD
:102F0000E1EEF0E080818E7F8083E2EEF0E0808170
:102F100081608083808188608083F80180818E7FDA
:102F20008083888180618883DF91CF911F910F9189
:102F30000895E8EDF0E080818F7E8083E7EDF0E09A
:102F400080818160808384E082BF81E08093D004AF
:102F50000C945617E8EDF0E080818E7F808310920C
:102F6000E20008951092DA001092E10008951F9295
:102F70000F920FB60F9211242F933F934F935F93AD
:102F80006F937F938F939F93AF93BF93EF93FF9331
:102F90008091E10082FF0BC08091E20082FF07C0B8
:102FA0008091E1008B7F8093E1000E945514809115
:102FB000DA0080FF1FC08091D80080FF1BC0809185
:102FC000DA008E7F8093DA008091D90080FF0DC0F7
:102FD00080E189BD82E189BD09B400FEFDCF81E0B9
:102FE0008093D1040E943B1405C019BC1092D104F7
:102FF0000E944D148091E10080FF19C08091E20091
:1030000080FF15C08091E2008E7F8093E200809166
:10301000E20080618093E2008091D800806280931A
:10302000D80019BC85E08093D1040E942E158091B0
:10303000E10084FF30C08091E20084FF2CC080E179
:1030400089BD82E189BD09B400FEFDCF8091D80021
:103050008F7D8093D8008091E1008F7E8093E10086
:103060008091E2008F7E8093E2008091E200816097
:103070008093E2008091CD04882311F084E007C0A2
:103080008091E30087FD02C081E001C083E080936E
:10309000D1040E9437158091E10083FF29C08091FF
:1030A000E20083FF25C08091E100877F8093E100EB
:1030B00082E08093D1041092CD048091E1008E7F54
:1030C0008093E1008091E2008E7F8093E200809106
:1030D000E20080618093E20042E060E080E00E94D4
:1030E000B6168091F00088608093F0000E9454141E
:1030F000FF91EF91BF91AF919F918F917F916F91D0
:103100005F914F913F912F910F900FBE0F901F90A5
:1031100018951F920F920FB60F9211242F933F9381
:103120004F935F936F937F938F939F93AF93BF93CF
:10313000CF93DF93EF93FF93C091E900CF7080911D
:10314000EC00D82FD17080FDD0E81092E90080917A
:10315000F000877F8093F00078940E94CD18109241
:10316000E9008091F00088608093F000CD2BCF7053
:10317000C093E900FF91EF91DF91CF91BF91AF91A3
:103180009F918F917F916F915F914F913F912F917F
:103190000F900FBE0F901F9018951F93CF93DF9342
:1031A000CDB7DEB7AA970FB6F894DEBF0FBECDBF7E
:1031B000E2EDF4E088E08E0F9091F10091938E1390
:1031C000FBCF0E946F148091E80083FF1FC18091A4
:1031D000D2049091D304492F50E04A30510508F0B1
:1031E00015C1FA01E156FF4F0C946431803881F02B
:1031F000823809F00BC18091D6048F708093E9006A
:103200008091EB0085FB882780F91092E90006C0C9
:103210008091CE049091CF04911182609091E8004A
:10322000977F9093E8008093F1001092F100C8C05E
:10323000282F2D7F09F0EAC0882319F0823061F031
:10324000E5C08091D404813009F0E0C0933009F0EA
:1032500080E08093CF042BC08091D404811127C0DB
:103260008091D6048F7009F4D1C08093E900209139
:10327000EB0020FF1CC0933021F48091EB008062B2
:1032800014C09091EB0090619093EB0021E030E04E
:10329000A90102C0440F551F8A95E2F74093EA0046
:1032A0001092EA008091EB0088608093EB0010920E
:1032B000E9008091E800877F86C08111A7C0109146
:1032C000D4041F778091E3008078812B8093E30002
:1032D0008091E800877F8093E8000E94EB16809140
:1032E000E80080FFFCCF8091E30080688093E300DA
:1032F000111102C082E001C083E08093D10486C036
:103300008058823008F082C08091D4049091D50416
:103310008C3D53E0950779F583E08A838AE28983BF
:103320004FB7F894DE01139620E03EE051E2E32F20
:10333000F0E050935700E49120FF03C0E295EF7056
:103340003F5FEF708E2F90E0EA3010F0C79601C01B
:10335000C0968D939D932F5F243149F74FBF809185
:10336000E800877F8093E8006AE270E0CE01019672
:103370000E94F21514C0AE014F5F5F4F6091D604FA
:103380000E943915BC01892B09F440C09091E800D6
:10339000977F9093E80089819A810E9455168091C9
:1033A000E8008B778093E80031C0803879F5809110
:1033B000E800877F8093E8008091CD048093F1003E
:1033C0008091E8008E778093E8000E94EB161EC083
:1033D00081111CC09091D4049230C0F48091E80017
:1033E000877F8093E8009093CD040E94EB16809134
:1033F000CD04811106C08091E30087FD02C081E009
:1034000001C084E08093D1040E9456148091E800AA
:1034100083FF0AC08091E800877F8093E800809155
:10342000EB0080628093EB00AA960FB6F894DEBFA3
:103430000FBECDBFDF91CF911F91089590930C04E3
:1034400080930B04089580910B0490910C040895CF
:10345000E0910B04F0910C04309721F00190F08181
:10346000E02D099480E00895EF92FF920F931F934F
:10347000CF93DF93E0910B04F0910C043097B1F1FE
:103480008C010280F381E02D09958091BB0482FFBD
:103490002DC080FF04C082E199E00E946C08E80121
:1034A00010E28CE0E82E89E0F82E8091BB0480FFCA
:1034B0000BC088811F928F93FF92EF920E940509A3
:1034C0000F900F900F900F90115021961111EDCF8A
:1034D0008091BB0480FF0AC08AE099E0DF91CF9120
:1034E0001F910F91FF90EF900C946C08DF91CF919A
:1034F0001F910F91FF90EF900895E0910B04F091D0
:103500000C04309721F00480F581E02D0994089592
:10351000CF93DF93EC018091090490910A04C817BE
:10352000D90709F1D0930A04C0930904E0910B0470
:10353000F0910C043097B9F00680F781E02DCE01B0
:1035400009958091BB0482FF0EC080FF0CC0DF9301
:10355000CF938CEF98E09F938F930E9405090F9073
:103560000F900F900F90DF91CF910895CF93DF933D
:10357000EC018091070490910804C817D90709F15C
:10358000D0930804C0930704E0910B04F0910C045D
:103590003097B9F00084F185E02DCE010995809136
:1035A000BB0482FF0EC080FF0CC0DF93CF938CEE74
:1035B00098E09F938F930E9405090F900F900F90B2
:1035C0000F90DF91CF9108950E94C4270C94B90900
:1035D000BF92CF92DF92EF92FF920F931F93CF9300
:1035E000DF9300D000D01F92CDB7DEB70E94E40970
:1035F0000EE014E0F12C8F2D0E94B50AB82EF801D0
:10360000C080C82639F4F3940F5F1F4FF8E0FF1213
:10361000F2CF30C08091BB0481FD0E948E1BD12C63
:10362000EE24E3948E2D8C21F9F0D982FA8281E088
:103630009E2D9B2109F480E08B830E94CD27816021
:10364000782F9D838C8349815A816B818D810E9463
:10365000C21B49815A816B817C818D810E944727E1
:10366000F80190819E259083D394EE0CF8E0DF1250
:10367000D9CFC9CF8FEF89838A831B820E94CD2740
:103680008160782F9D838C8349815A816B818D81E4
:103690000E94C21B0E9446270E944E2B10910D04CF
:1036A0000E94281A181741F10E94281A80930D04CD
:1036B0009091BB0492FF0EC090FF0CC01F928F939D
:1036C0008DE199E09F938F930E9405090F900F90D1
:1036D0000F900F9080910D040F900F900F900F900E
:1036E0000F90DF91CF911F910F91FF90EF90DF909E
:1036F000CF90BF900C9458270F900F900F900F9081
:103700000F90DF91CF911F910F91FF90EF90DF907D
:10371000CF90BF9008950C94C20A0895EF92FF9243
:103720000F931F93CF93DF9386E399E00E946C0879
:10373000C0E0D0E084E3E82E81E0F82E08E219E052
:103740008C2F0E94B50A0E943027FF92EF921F92A1
:103750008F93DF93CF931F930F930E9405092196B8
:103760008DB79EB708960FB6F8949EBF0FBE8DBF5B
:10377000C830D10529F7DF91CF911F910F91FF90AC
:10378000EF900895CF93DF93CDB7DEB72B970FB6A9
:10379000F894DEBF0FBECDBF942F4F83252F5887DF
:1037A00069877A878B874A855B85452B21F02F3F78
:1037B00009F59F3FF9F4DE01119686E0FD011192B3
:1037C0008A95E9F785E0FE01379601900D928A957A
:1037D000E1F749815A816B817C818D819E810E94B4
:1037E0000F232B960FB6F894DEBF0FBECDBFDF912F
:1037F000CF9108954F81588569857A858B850E9480
:103800004727D9CFCF93882309F4A4C0C82F8CEFC2
:103810008C0F813A48F48C2F0E94942E81119AC00B
:103820008C2F0E94E7250CC080E28C0F883058F462
:10383000C77081E001C0880FCA95EAF70E949226FE
:10384000CF910C94D6268BE58C0F833078F4C53A53
:1038500029F0C63A31F083E890E005C081E890E0B5
:1038600002C082E890E0CF910C94881A88E58C0F12
:10387000853108F06FC0C83A61F1C93A69F1CA3AB6
:1038800071F1CB3A79F1CC3A81F1CD3A89F1CE3A66
:1038900091F1CF3A99F1C13BA1F1C03BA9F1C23BF3
:1038A000B1F1C33BB9F1C43BC1F1C53BC9F1C63B62
:1038B000D1F1C73BD9F1C83BE1F1C93BE9F1CA3BC2
:1038C000F1F1CB3BF9F1CC3B09F43FC080E090E053
:1038D0003EC082EE90E03BC089EE90E038C08AEEB8
:1038E00090E035C085EB90E032C086EB90E02FC0D1
:1038F00083EB90E02CC084EB90E029C087EB90E054
:1039000026C08CEC90E023C08DEC90E020C083E8D2
:1039100091E01DC08AE891E01AC082E991E017C0E9
:1039200084E991E014C081E292E011C083E292E068
:103930000EC084E292E00BC085E292E008C086E20D
:1039400092E005C087E292E002C08AE292E0CF9165
:103950000C94B61ACF910895882329F19CEF980F03
:10396000913A18F40E943A260DC090E2980F9830D0
:1039700058F4877091E001C0990F8A95EAF7892F72
:103980000E9498260C94D6269BE5980F933020F43D
:1039900080E090E00C94881A885A853120F480E009
:1039A00090E00C94B61A0895882321F00E94922684
:1039B0000C94D6260895882321F00E9498260C9412
:1039C000D6260895BF92CF92DF92EF92FF920F9387
:1039D0001F93CF93DF9300D000D000D0CDB7DEB7D8
:1039E00025E0FC01DE01119601900D922A95E1F788
:1039F000FC0140815181028163817481258122957E
:103A00002F706115710509F403C35F3F19F44F3F2F
:103A100009F4FEC26C01862F7D836C83602F782FA2
:103A20008D812E830E946B25182FB92E0E946A2546
:103A30000E945A24EB2DE295EF70F0E0E755FF4F1E
:103A40002E810C9464318B2D807F9B2D9F70F92EDD
:103A5000882319F0F29490EFF922002349F0FF2017
:103A600009F483C28F2D0E94A5260E94D6267DC20E
:103A7000812F0E94AC1CFF2009F4CAC28F2D0E9426
:103A8000AB2626960FB6F894DEBF0FBECDBFDF91F2
:103A9000CF911F910F91FF90EF90DF90CF90BF904B
:103AA0000C94D6268B2D807F9B2D9F70F92E803213
:103AB00019F0F29480EFF822112319F0113009F176
:103AC0002AC00023B1F08F2D222351F1213041F57E
:103AD00026960FB6F894DEBF0FBECDBFDF91CF9113
:103AE0001F910F91FF90EF90DF90CF90BF900C94BB
:103AF000B526222319F0213009F48AC20E94BE267D
:103B00002DC00023F1F0263008F082C20E948F26DB
:103B10008F2129F023C00023F9F0211116C08F2D29
:103B200026960FB6F894DEBF0FBECDBFDF91CF91C2
:103B30001F910F91FF90EF90DF90CF90BF900C946A
:103B4000D41C253008F064C209C0F601858180FFCD
:103B50000CC28F708583E3CF21111CC28F2D83C1CE
:103B60002B2D26952695237030E02115310521F067
:103B700021303105D1F04CC2002321F0812F9B2D43
:103B8000937002C080E090E026960FB6F894DEBFF6
:103B90000FBECDBFDF91CF911F910F91FF90EF909E
:103BA000DF90CF90BF900C94881A002321F0812FD2
:103BB0009B2D937002C080E090E026960FB6F8949B
:103BC000DEBF0FBECDBFDF91CF911F910F91FF9050
:103BD000EF90DF90CF90BF900C94B61A812F002306
:103BE00019F00E94D42902C00E943C2A26960FB6E2
:103BF000F894DEBF0FBECDBFDF91CF911F910F9123
:103C0000FF90EF90DF90CF90BF900C94C12A8B2D46
:103C1000837009F07BC00111FBC1812F82958695CD
:103C20008770880F880F912F9F70C92ED12CE12C9F
:103C3000F12C082E04C0CC0CDD1CEE1CFF1C0A94D9
:103C4000D2F714FF12C04FE050E060E070E004C013
:103C5000440F551F661F771F8A95D2F7CB01BA0113
:103C6000609570958095909503C060E070E0CB0101
:103C70002B2D269526952370422F50E0423051057A
:103C8000D9F04330510569F16C297D298E299F298E
:103C90004130510551F126960FB6F894DEBF0FBEA4
:103CA000CDBFDF91CF911F910F91FF90EF90DF90EB
:103CB000CF90BF900C947F246C297D298E299F2959
:103CC00026960FB6F894DEBF0FBECDBFDF91CF9121
:103CD0001F910F91FF90EF90DF90CF90BF900C94C9
:103CE00099240E947F24C701B60126960FB6F89446
:103CF000DEBF0FBECDBFDF91CF911F910F91FF901F
:103D0000EF90DF90CF90BF900C946524002319F0C2
:103D10008B2D817001C08695882309F479C1812F8C
:103D2000829586958770880F880F912F9F70C92E76
:103D3000D12CE12CF12C082E04C0CC0CDD1CEE1C87
:103D4000FF1C0A94D2F714FF12C04FE050E060E06D
:103D500070E004C0440F551F661F771F8A95D2F785
:103D6000CB01BA01609570958095909503C060E095
:103D700070E0CB012B2D269526952370422F50E025
:103D800042305105D9F04330510569F16C297D2944
:103D90008E299F294130510551F126960FB6F8948E
:103DA000DEBF0FBECDBFDF91CF911F910F91FF906E
:103DB000EF90DF90CF90BF900C9446256C297D2921
:103DC0008E299F2926960FB6F894DEBF0FBECDBF71
:103DD000DF91CF911F910F91FF90EF90DF90CF90E7
:103DE000BF900C9458250E944625C701B60126961F
:103DF0000FB6F894DEBF0FBECDBFDF91CF911F91FC
:103E00000F91FF90EF90DF90CF90BF900C943425EE
:103E1000103FD1F128F480E4810F803250F0A0C02F
:103E2000123F09F462C008F44BC0133F09F472C09A
:103E300097C0F12FF071FF2E8B2D8F71002351F061
:103E40000E94CD24812FFF2019F08295807F68CEBB
:103E50008F7066CE0E94EE24812FFF2019F082958C
:103E6000807F01C08F7026960FB6F894DEBF0FBE1C
:103E7000CDBFDF91CF911F910F91FF90EF90DF9019
:103E8000CF90BF900C94DB1C0023B1F0253008F0DC
:103E9000BFC08B2D8F7126960FB6F894DEBF0FBE74
:103EA000CDBFDF91CF911F910F91FF90EF90DF90E9
:103EB000CF90BF900C941325263008F0A9C0E9CF0D
:103EC0000023A9F08B2D8F7126960FB6F894DEBFD4
:103ED0000FBECDBFDF91CF911F910F91FF90EF905B
:103EE000DF90CF90BF900C94CD24002359F38B2DFD
:103EF0008F7126960FB6F894DEBF0FBECDBFDF914F
:103F0000CF911F910F91FF90EF90DF90CF90BF90D6
:103F10000C94EE24002399F08B2D8F7126960FB60A
:103F2000F894DEBF0FBECDBFDF91CF911F910F91EF
:103F3000FF90EF90DF90CF90BF900C94B82426961E
:103F40000FB6F894DEBF0FBECDBFDF91CF911F91AA
:103F50000F91FF90EF90DF90CF90BF900C94B3241F
:103F60000023A9F0222309F4ADCF812F26960FB6A6
:103F7000F894DEBF0FBECDBFDF91CF911F910F919F
:103F8000FF90EF90DF90CF90BF900C94021C222303
:103F900009F4ADCF812F26960FB6F894DEBF0FBE81
:103FA000CDBFDF91CF911F910F91FF90EF90DF90E8
:103FB000CF90BF900C94AC1C4B2D4F70612FC6015D
:103FC0000E940E0926960FB6F894DEBF0FBECDBF35
:103FD000DF91CF911F910F91FF90EF90DF90CF90E5
:103FE000BF900C94B3234B2D4F70612FC6012696C2
:103FF0000FB6F894DEBF0FBECDBFDF91CF911F91FA
:104000000F91FF90EF90DF90CF90BF900C94350907
:1040100026960FB6F894DEBF0FBECDBFDF91CF91CD
:104020001F910F91FF90EF90DF90CF90BF90089578
:104030000E94B2260E9481260E94D6260E94F32B5F
:104040000E94C12A80E090E00E94881A80E090E0FF
:104050000C94B61A0E94A2260C941820CF93DF93DA
:1040600000D000D01F92CDB7DEB7942F4983252F03
:104070005A836B837C838D834C815D81452B39F121
:104080002F3F11F49F3F19F149815A816B817C8147
:104090008D810E946B25292F22952F7030E02C30C6
:1040A000310504F52A3031055CF422503109223003
:1040B000310568F4853A80F4843090F4823080F0E1
:1040C000883E38F4803E60F48450813A48F080E0C5
:1040D00014C0803FE1F704C090E2980F983080F759
:1040E00081E00BC02C30310521F493FB882780F947
:1040F00004C02F303105C9F3EACF0F900F900F9015
:104100000F900F90DF91CF910895CF93DF9300D060
:1041100000D01F92CDB7DEB70F900F900F900F9089
:104120000F90DF91CF910895CF93DF9300D000D00F
:1041300000D0CDB7DEB726960FB6F894DEBF0FBE1F
:10414000CDBFDF91CF9108951F93CF93DF93C0919F
:10415000160416E080911704C81799F0D0E01C9F50
:10416000F0011D9FF00D1124E85EFB4F408151814D
:1041700062817381848195810E9494202196C77009
:10418000E9CFDF91CF911F9108954091480450915C
:10419000490460914A0470914B0480914C049091C1
:1041A0004D040C94942080914D0482958F7009F0F9
:1041B00054C080914A04882309F44FC080911604AA
:1041C000A0911704609148047091490440914B04F8
:1041D00050914C04B6E08A1709F43FC090E04115B5
:1041E0005105C1F17F3F11F46F3FA1F1B89FF0017C
:1041F000B99FF00D1124E85EFB4F218172132AC094
:104200002081621327C02281211124C0238134819F
:104210002417350710F421503109241B350B2C329B
:104220003140C0F420914D042F70206120934D0443
:1042300026E0289FF001299FF00D1124E35EFB4F3B
:1042400080818F708061808388E494E00E94E21C0A
:104250000C94A42001968770BECF0895BF92CF9290
:10426000DF92EF92FF920F931F93CF93DF93CDB71F
:10427000DEB761970FB6F894DEBF0FBECDBF7C01ED
:1042800085E0F701DE011D9601900D928A95E1F718
:10429000D7014C9111965C9111971296DC90129770
:1042A00013960D911C911497309148046091490424
:1042B00080914B0490914C04009709F47FC16F3FAB
:1042C00019F43F3F09F47AC1B0904A04BB2009F4C5
:1042D000CAC020914D040817190750F0F801E81BD7
:1042E000F90BCF01CC24C3948C329140D0F009C09B
:1042F00080959095800F911FCC24C3948C3291406F
:1043000080F0C12C207F09F0CCC0702F198B088B56
:104310006D2D89890E94852088E494E00E94E21C2A
:10432000B6C0822F807F09F047C0651314C03413D4
:1043300012C0D11010C02F70206120934D040E9434
:10434000C52088E494E00E94E21C80914D04D701CE
:1043500015968C932FC00115110519F15F3F11F4CB
:104360004F3FF9F0CD2CD1101CC080911604209144
:10437000170436E0821709F45CC090E0389FF00122
:10438000399FF00D1124E85EFB4F6181561306C082
:104390006081461303C06281611103C0019687707A
:1043A000E9CFCD2CDD2009F429C180914D04816035
:1043B00080934D04C12C22C1651308C0341306C07C
:1043C000D11004C080914D04D701CCC04D875E87C9
:1043D000DF86702F198B088B6D2D89890E942E2006
:1043E0008823E9F1DD20D9F120914D04822F8295B7
:1043F0008F7090E0029774F0809148049091490486
:1044000098878F8319861B870A872C87CE0107968A
:104410000E94E21C86E0F701A8E4B4E001900D924E
:104420008A95E1F70E94D3200E94C520CC24C39432
:10443000E5C0702F198B088B60E089890E946B257D
:10444000292F22952F7030E0223031050CF0CAC0A0
:104450009F7009F0C4C0805E883008F4CFC0C701E7
:104460000E94E21CE3CF0817190708F456C0F801B0
:10447000E81BF90BCF018C32914008F456C0C12CD7
:10448000702F198B088B6D2D89890E948520E8E497
:10449000F4E086E0DF011D928A95E9F70E94C520CD
:1044A000ADC0651314C0341312C0D11010C0809178
:1044B0004D04F7018583C7010E94E21C86E0E8E411
:1044C000F4E0DF011D928A95E9F7CB2C97C04D8768
:1044D0005E87DF86702F198B088B6D2D89890E946E
:1044E0002E20882309F4BBCFDD2009F4B8CF20911A
:1044F0004D04822F82958F7090E002970CF48ACF42
:1045000080914804909149049A8389831B821D837A
:104510000C832E83CE0101967BCF80959095800FE2
:10452000911F8C32914008F0AACFCD2CDD2009F4E8
:1045300096CF65132EC034132CC020914D0420FD5E
:104540001FC0822F82958F70D9F0D70115962C93BA
:1045500015978F3049F08F5F982F9295907F822F1B
:104560008F70892B15968C93C7010E94E21C86E000
:10457000F701A8E4B4E001900D928A95E1F78ECF9F
:1045800086E0F701A8E4B4E001900D928A95E1F786
:1045900035C04D875E87DF86702F198B088B6D2D98
:1045A00089890E942E20811135CF80914D04816030
:1045B00080934D04C7010E94E21C20C0DD2009F455
:1045C0004ECF4D875E87DF86702F198B088B6D2D40
:1045D00089890E942E20882309F441CF1BCF8111A5
:1045E0003ACF0CC0243031050CF039CF9F7009F45C
:1045F00032CFF7019581907F09F02DCF8C2D6196F8
:104600000FB6F894DEBF0FBECDBFDF91CF911F91E3
:104610000F91FF90EF90DF90CF90BF9008951F9380
:10462000CF93DF93CDB7DEB72C970FB6F894DEBFEC
:104630000FBECDBF4F83588769877A878B879C874A
:10464000CE0107960E942E21882369F08F819885DC
:104650002A853B85232BF1F19F3F09F063C08F3FF3
:1046600009F060C037C086E0FE013796DE01119682
:1046700001900D928A95E1F76F817885EA85FB8537
:10468000309741F17F3F11F46F3F21F120911704E2
:1046900030E0C9010196877099274091160450E0D7
:1046A0008417950709F447C069837A83FD83EC83F7
:1046B00096E0929FD001939FB00D1124A85EBB4F4E
:1046C000FE01319601900D929A95E1F780931704BF
:1046D0000E94A42016E08091160490911704891777
:1046E000C1F1189FC0011124885E9B4F0E942E21AA
:1046F000882379F1E09116041E9FF0011124E85EF1
:10470000FB4F4081518162817381848195810E9438
:1047100094208091160490E00196877099278093E9
:104720001604D9CF4F81588569857A858B859C85FC
:104730000E949420CFCF0E942A201092170410923A
:104740001604E8E4F4E086E0DF011D928A95E9F7BB
:10475000C1CF2C960FB6F894DEBF0FBECDBFDF9150
:10476000CF911F910895DF92EF92FF920F931F93C5
:10477000CF93DF93FC01892B09F48AC0E12CF12C43
:10478000DD24D394EF0121968491853709F461C02B
:1047900058F4843708F04EC0843008F06AC0813085
:1047A000D1F0823071F174C0883709F45DC050F4E3
:1047B000863709F455C0873709F06AC08E2D0E94EC
:1047C0009F2654C09CE7980F903708F061C08F7700
:1047D0000E94AC1C50C08F010E5F1F4FFE018491E0
:1047E00090E2980F983050F48770FD2D01C0FF0FB4
:1047F0008A95EAF78F2F0E94A52614C00E94021CFA
:1048000013C08F010E5F1F4FFE01C49180E28C0F19
:10481000883060F4C7708D2D01C0880FCA95EAF703
:104820000E94AB260E94D626E80125C08C2F0E944C
:10483000AC1CFACF9F012E5F3F4FFE01C491CC23E9
:1048400069F08FE99FE00197F1F700C00000C150C7
:10485000F6CF9F012E5F3F4FFE01F490E9010BC0A0
:104860000E948F26E82E07C00E94A2260E94D6260C
:1048700002C00E94021C8F2D882341F0EFE9FFE067
:104880003197F1F700C000008150F6CFFE017ACFDA
:10489000DF91CF911F910F91FF90EF90DF900895DE
:1048A00060938E0470938F0480939004909391048E
:1048B0000C94572708956093920470939304809307
:1048C0009404909395040C9456270F931F93009192
:1048D0009204109193042091940430919504602BDC
:1048E000712B822B932B609392047093930480938B
:1048F0009404909395041F910F910C9456270F9355
:104900001F9300919204109193042091940430918C
:104910009504602371238223932360939204709300
:10492000930480939404909395041F910F910C9499
:1049300056270F931F930091920410919304209196
:104940009404309195046027712782279327609300
:1049500092047093930480939404909395041F9110
:104960000F910C94562760E070E0CB010C9450241A
:104970000F931F9341E050E060E070E08A019B01DB
:1049800004C0000F111F221F331F8A95D2F7C901DF
:10499000B8011F910F910C9450240F931F9341E085
:1049A00050E060E070E004C0440F551F661F771FA1
:1049B0008A95D2F780918E0490918F04A0919004F3
:1049C000B09191048A019B01082B192B2A2B3B2BB8
:1049D000C901B8011F910F910C9450240F931F939C
:1049E00041E050E060E070E004C0440F551F661FD6
:1049F000771F8A95D2F74095509560957095809174
:104A00008E0490918F04A0919004B09191048A013A
:104A10009B01082319232A233B23C901B8011F91B5
:104A20000F910C9450240F931F9341E050E060E0ED
:104A300070E004C0440F551F661F771F8A95D2F798
:104A400080918E0490918F04A0919004B091910474
:104A50008A019B01082719272A273B27C901B8018A
:104A60001F910F910C9450240F931F9300918E046B
:104A700010918F042091900430919104602B712B40
:104A8000822B932B1F910F910C9450240F931F9303
:104A900000918E0410918F04209190043091910424
:104AA00060237123822393231F910F910C94502430
:104AB0000F931F9300918E0410918F042091900406
:104AC0003091910460277127822793271F910F91BE
:104AD0000C94502408958F929F92AF92BF92DF92D0
:104AE000EF92FF920F931F93CF93DF9300D000D0EC
:104AF0001F92CDB7DEB76B837C838D838A018C8157
:104B00009D81892B21F01F3F29F44F3F19F480E04C
:104B100090E04CC08B818823C9F1809092049090E2
:104B20009304A0909404B090950480918E04909189
:104B30008F04A0919004B0919104882A992AAA2AFE
:104B4000BB2A8FE1E82EF12CD501C4010E2C04C044
:104B5000B695A795979587950A94D2F780FF07C0D9
:104B6000DE2CB8018E2D0E949D28019729F481E04A
:104B7000E81AF10848F7D12C88E0189FF0011124B9
:104B8000E00FF11DE25BFB4FD08209C088E0189F67
:104B9000F0011124E00FF11DE25BFB4FD08009838F
:104BA0001A8369817A818D2D0E949D280F900F9024
:104BB0000F900F900F90DF91CF911F910F91FF9069
:104BC000EF90DF90BF90AF909F908F90089590915D
:104BD0002501992321F090912601911109C020917E
:104BE000270130912801F90132969FEF40E030C053
:104BF000982F9695969596959F31A0F4E091270170
:104C0000F0912801E90FF11D877021E030E0A90142
:104C100002C0440F551F8A95E2F7CA019181892B82
:104C2000818308959091BB0490FF23C01F928F93BE
:104C300082E699E09F938F930E9405090F900F9051
:104C40000F900F9008959F3F39F04F5F4E3141F024
:104C500051915813F8CF0DC05111F7CF942FF5CFC4
:104C60009F3F39F0F901E90FF11D97FDFA95828315
:104C70000895089590912501992321F0909126019E
:104C8000911109C02091270130912801F901329634
:104C9000205E3F4F30C0982F9695969596959F3100
:104CA000A8F4E0912701F0912801E90FF11D877028
:104CB00021E030E0A90102C0440F551F8A95E2F7B8
:104CC000CA01809591818923818308959091BB04C5
:104CD00090FF16C01F928F9384E499E09F938F9367
:104CE0000E9405090F900F900F900F900895319634
:104CF000E217F30729F090819813F9CF1082F7CFCC
:104D0000089581E090E0E0912701F0912801E80FFB
:104D1000F91F1082019680329105A9F708958091BC
:104D2000BA0408959091BA04892B8093BA04089527
:104D300080959091BA0489238093BA040895809352
:104D4000BA0408951092BA0408959091B904892B79
:104D50008093B904089580959091B9048923809334
:104D6000B90408951092B9040895809398040E949C
:104D7000CD279093970480939604089510929804F9
:104D800010929704109296040895809127019091B3
:104D90002801FC0131969C01205E3F4F80E09191FB
:104DA00091118F5FE217F307D1F70895E091270182
:104DB000F09128018091BA048083E0912701F0915D
:104DC000280190818091B904892B80838091980477
:104DD0008823D9F10E94CD27209196043091970421
:104DE0008217930748F00E94CD27209196043091B6
:104DF0009704821B930B0AC00E94CD272091960432
:104E00003091970420953095820F931F8C329140FA
:104E100070F08091BB0480FF08C080E899E09F9308
:104E20008F930E9405090F900F900E94BE26E0917B
:104E30002701F0912801908180919804892B80832B
:104E40000E94C52681110E94BE2680912701909163
:104E500028010C94341A9093A7018093A601089519
:104E60008295982F9C7C392F36953695282F237361
:104E700044E0249FC0011124932F982B292F2A7AD4
:104E80002695892F8575880F822B08950895CF93D5
:104E9000DF9300D000D01F92CDB7DEB70F900F90F8
:104EA0000F900F900F90DF91CF910895089508957E
:104EB0000C948B1B8091D104843021F11092BC049E
:104EC00020E488E190E00FB6F894A8958093600004
:104ED0000FBE2093600083B7817F846083BF83B758
:104EE000816083BF7894889583B78E7F83BF0FB628
:104EF000F894A8958091600088618093600010927A
:104F000060000FBE0895CF930E94BE0A0E94E4097C
:104F10000E94C00AC0E08C2F0E94B50A811104C013
:104F2000CF5FC830C1F701C081E0CF9108950E94E2
:104F30008D1B0C942A201F920F920FB60F921124F2
:104F40008F939F93AF93BF938091BC04811113C043
:104F50008091BD049091BE04A091BF04B091C004A3
:104F60004196A11DB11D8093BD049093BE04A093F2
:104F7000BF04B093C004BF91AF919F918F910F90E8
:104F80000FBE0F901F90189582E084BD93E095BDF1
:104F90009AEF97BD80936E0008952FB7F894809193
:104FA000BD049091BE04A091BF04B091C0042FBF76
:104FB00008952FB7F8946091BD047091BE0480915C
:104FC000BF049091C0042FBF0895CF92DF92EF925B
:104FD000FF920F931F932FB7F8944091BD04509107
:104FE000BE046091BF047091C0042FBF6A017B01B1
:104FF000EE24FF248C0120E030E0C016D106E2064A
:10500000F30610F4415051099A01281B390BC901CC
:105010001F910F91FF90EF90DF90CF900895CF9266
:10502000DF92EF92FF920F931F932FB7F894C090E7
:10503000BD04D090BE04E090BF04F090C0042FBF28
:1050400097018601061B170B280B390BC616D706CE
:10505000E806F90618F0C901B80106C0C901B8018F
:1050600061507109810991091F910F91FF90EF9093
:10507000DF90CF9008951F920F920FB60F921124D8
:105080008F939F93AF93BF938091BD049091BE0483
:10509000A091BF04B091C0040196A11DB11D8093E1
:1050A000BD049093BE04A093BF04B093C004BF910D
:1050B000AF919F918F910F900FBE0F901F901895F9
:1050C0000E943C17F8942FEF87EA91E62150804028
:1050D0009040E1F700C0000087E090EBDC01809396
:1050E000DA049093DB04A093DC04B093DD049CE02D
:1050F00088E10FB6F894A895809360000FBE909356
:105100006000FFCFE72FF0E098E0899FE00DF11DF0
:10511000112483E0EE0FFF1F8A95E1F7E60FF11DE2
:10512000E652FE4F84910895E82FF0E0EE0FFF1F46
:10513000E05CFF4F8591949108950E94822890E44D
:10514000980F903218F40E94942808958D3B50F4E3
:10515000883AA0F5853A28F5843000F5813009F4C5
:105160009DC099C0883E98F4803EC0F48F3B09F002
:1051700092C00E942A202FEF80E792E021508040C9
:105180009040E1F700C000000E94602884C0803F8A
:1051900008F481C0282F30E0306582C0282F30E02D
:1051A0007FC0853A29F0863A31F023E830E478C0B0
:1051B00021E830E475C022E830E472C0883A61F139
:1051C000893A69F18A3A71F18B3A79F18C3A81F135
:1051D0008D3A89F18E3A91F18F3A99F1813BA1F1A3
:1051E000803BA9F1823BB1F1833BB9F1843BC1F132
:1051F000853BC9F1863BD1F1873BD9F1883BE1F191
:10520000893BE9F18A3BF1F18B3BF9F18C3B09F4E5
:105210003FC020E034E444C022EE34E441C029EE33
:1052200034E43EC02AEE34E43BC025EB34E438C01D
:1052300026EB34E435C023EB34E432C024EB34E411
:105240002FC027EB34E42CC02CEC34E429C02DEC27
:1052500034E426C023E835E423C02AE835E420C03E
:1052600022E935E41DC024E935E41AC021E236E420
:1052700017C023E236E414C024E236E411C025E26C
:1052800036E40EC026E236E40BC027E236E408C05E
:105290002AE236E405C020E030E002C021E030E040
:1052A000C90108958091C30480FF0BC060912C0157
:1052B00085E0689FB0011124759567957595679590
:1052C0002BC081FF09C060912C0185E0689FB0016F
:1052D00011247595679520C082FF07C060912C014D
:1052E00085E0689FB001112417C09091C4049923F0
:1052F000D1F060912B01961788F720912C0185E061
:10530000289F90011124929FA001939F500D11247A
:1053100070E0CA010E942E316038710540F46115B9
:10532000710539F002C065E070E0862F08958FE7BF
:10533000089581E008958091C30480FF08C06091C2
:105340002A0170E0759567957595679521C081FF75
:1053500006C060912A0170E07595679519C082FFBB
:1053600004C060912A0170E010C09091C404992398
:10537000C1F0609129019617A0F780912A01899FB9
:10538000C001112470E00E942E316038710528F4AC
:105390006115710521F0862F08958FE7089581E04A
:1053A000089561E070E0F4CF803F21F40E9452291B
:1053B000819504C0813F29F40E9452298093C7043B
:1053C0000895823F21F40E945229819504C0833FB1
:1053D00029F40E9452298093C6040895893F19F444
:1053E0000E949B2905C08A3F31F40E949B29819528
:1053F0008093C80408958B3F21F40E949B298195D6
:1054000004C08C3F29F40E949B298093C90408950D
:10541000843F21F48091C504816017C0853F21F449
:105420008091C504826011C0863F21F48091C5043B
:1054300084600BC0873F21F48091C504886005C05B
:10544000883F31F48091C50480618093C50408953C
:105450008D3F21F48091C30481600BC08E3F21F405
:105460008091C304826005C08F3F29F48091C304FA
:1054700084608093C3040895803F39F48091C70409
:1054800087FF6CC01092C70469C0813F29F48091E6
:10549000C7041816BCF362C09091C604823F29F479
:1054A00097FF5CC01092C60459C0833F19F41916C7
:1054B000CCF354C0893F41F48091C80418160CF015
:1054C0004DC01092C8044AC08A3F29F48091C80494
:1054D00087FF44C0F6CF8B3F39F48091C90487FF22
:1054E0003DC01092C9043AC08C3F29F48091C90490
:1054F0001816BCF333C0843F21F48091C5048E7F1D
:1055000017C0853F21F48091C5048D7F11C0863F6F
:1055100021F48091C5048B7F0BC0873F21F48091DB
:10552000C504877F05C0883F31F48091C5048F7E14
:105530008093C50413C08D3F21F48091C3048E7FF6
:105540000BC08E3F21F48091C3048D7F05C08F3F37
:1055500029F48091C3048B7F8093C3048091C60497
:1055600081110EC08091C70481110AC08091C804C6
:10557000811106C08091C904811102C01092C40437
:1055800008958091BB0483FF7EC089EB99E00E945F
:105590006C088091C5041F928F9384EB99E09F93D0
:1055A0008F930E94050982EB99E00E946C0880911C
:1055B000C604282F082E000C330B3F938F938FEADD
:1055C00099E09F938F930E9405098DEA99E00E94CC
:1055D0006C088091C704282F082E000C330B3F93D2
:1055E0008F938AEA99E09F938F930E94050988EA36
:1055F00099E00E946C088091C804282F082E000CA6
:10560000330B3F938F9385EA99E09F938F930E948A
:10561000050983EA99E00E946C088091C904282F4B
:10562000082E000C330B3F938F9380EA99E09F93F1
:105630008F930E9405098DE999E00E946C08809182
:10564000C4041F928F938AE999E09F938F930E94DD
:10565000050988E999E00E946C088091C3041F92B3
:105660008F9385E999E09F938F930E94050982E9C2
:1056700099E00E946C088DB79EB74C960FB6F894CF
:105680009EBF0FBE8DBF85EC94E00E947D1A0E94E4
:10569000CD279093C2048093C10408951F93CF93A4
:1056A000DF938091C1049091C2040E94E527AC0170
:1056B0009091C404992321F020912D0130E006C07F
:1056C00020912E018AE0289F900111244217530750
:1056D00008F485C08091C604C091C704D091C80465
:1056E0001091C904811107C0C11175C0D11173C0D7
:1056F000111171C074C09F3F19F09F5F9093C40453
:10570000181624F40E9452298093C6048091C6047E
:1057100087FF05C00E94522981958093C6041C16FC
:1057200024F40E9452298093C7048091C70487FF04
:1057300005C00E94522981958093C7046091C604D8
:10574000662331F1C091C704CC2311F1062E000C61
:10575000770B880B990B0E94213023E333E343E35B
:105760005FE30E9485300E94E92F6093C6046C2F8E
:10577000CC0F770B880B990B0E94213023E333E386
:1057800043E35FE30E9485300E94E92F6093C704E2
:105790001D1624F40E949B298093C8048091C8049C
:1057A00087FF05C00E949B2981958093C80411162C
:1057B00024F40E949B298093C9048091C90487FF27
:1057C00005C00E949B2981958093C904DF91CF91E8
:1057D0001F910C94C12A9F3F09F08FCF97CFDF9183
:1057E000CF911F910895E5ECF4E085E0DF011D9273
:1057F0008A95E9F71092C4041092C30408958CEDC1
:105800009BE00E946C081F9281E08F931F9285E0BD
:105810008F938EE89BE09F938F930E9405090F90D2
:105820000F900F900F900F900F9008958330E9F133
:1058300028F4813061F0823009F10895853009F44F
:1058400062C008F449C0863009F474C0089580919C
:105850002E01262F30E0280F311D2F3F310524F473
:10586000680F60932E0103C08FEF80932E0180910B
:105870002E011F928F9387EC9AE072C080912D01C8
:10588000262F30E0280F311D2F3F310524F4680FFB
:1058900060932D0103C08FEF80932D0180912D0126
:1058A0001F928F9385EB9AE05BC080912C01262F8D
:1058B00030E0280F311D2F3F310524F4680F60932D
:1058C0002C0103C08FEF80932C0180912C011F923B
:1058D0008F9382EA9AE044C080912B01262F30E01A
:1058E000280F311D2F3F310524F4680F60932B01E1
:1058F00003C08FEF80932B0180912B011F928F9318
:105900008DE89AE02DC080912A01262F30E0280FE3
:10591000311D2F3F310524F4680F60932A0103C025
:105920008FEF80932A0180912A011F928F9384E741
:105930009AE016C080912901262F30E0280F311DF2
:105940002F3F310524F4680F6093290103C08FEFC6
:1059500080932901809129011F928F9389E59AE014
:105960009F938F930E9405090F900F900F900F90B7
:105970000895833081F128F4813059F08230D1F0DC
:105980000895853009F449C0B8F1863009F456C04D
:10599000089580912E01681720F4861B80932E01B4
:1059A00002C010922E0180912E011F928F938AE4E3
:1059B0009AE054C080912D01681720F4861B8093D3
:1059C0002D0102C010922D0180912D011F928F9305
:1059D00088E39AE043C080912C01681720F4861B6D
:1059E00080932C0102C010922C0180912C011F92F7
:1059F0008F9385E29AE032C080912B01681720F4E2
:105A0000861B80932B0102C010922B0180912B01E9
:105A10001F928F9380E19AE021C080912A0168173C
:105A200020F4861B80932A0102C010922A018091E3
:105A30002A011F928F9387EF99E010C0809129016E
:105A4000681720F4861B8093290102C01092290157
:105A5000809129011F928F938CED99E09F938F93F2
:105A60000E9405090F900F900F900F900895CF930B
:105A7000C82F1F928F9381EE9CE09F938F930E947B
:105A8000050981E090E0A0E0B0E0BC01CD0104C0D8
:105A9000660F771F881F991FCA95D2F70E945B2453
:105AA0000F900F900F900F90CF910C942A20CF93CE
:105AB0008732A8F58E3108F02BC1803109F49FC0E0
:105AC000F8F4873009F464C0A8F4863009F024C1E2
:105AD0008091BB04817F8E7F8093BB0486EE9CE027
